{
  "contracts/MarketPlace.sol": {
    "MarketPlace": {
      "abi": [
        {
          "anonymous": false,
          "inputs": [
            {
              "indexed": true,
              "internalType": "address",
              "name": "nftCollectionAddress",
              "type": "address"
            },
            {
              "indexed": true,
              "internalType": "uint256",
              "name": "nftId",
              "type": "uint256"
            },
            {
              "indexed": false,
              "internalType": "address",
              "name": "addressPaymentToken",
              "type": "address"
            },
            {
              "indexed": false,
              "internalType": "uint256",
              "name": "amountPaymentToken",
              "type": "uint256"
            },
            {
              "indexed": false,
              "internalType": "uint256",
              "name": "endTime",
              "type": "uint256"
            },
            {
              "indexed": false,
              "internalType": "address",
              "name": "bidder",
              "type": "address"
            },
            {
              "indexed": true,
              "internalType": "uint256",
              "name": "bidId",
              "type": "uint256"
            }
          ],
          "name": "AcceptBid",
          "type": "event"
        },
        {
          "anonymous": false,
          "inputs": [
            {
              "indexed": true,
              "internalType": "address",
              "name": "nftCollectionAddress",
              "type": "address"
            },
            {
              "indexed": true,
              "internalType": "uint256",
              "name": "nftId",
              "type": "uint256"
            }
          ],
          "name": "ActivateBidding",
          "type": "event"
        },
        {
          "anonymous": false,
          "inputs": [
            {
              "indexed": true,
              "internalType": "address",
              "name": "nftCollectionAddress",
              "type": "address"
            },
            {
              "indexed": true,
              "internalType": "uint256",
              "name": "nftId",
              "type": "uint256"
            },
            {
              "indexed": false,
              "internalType": "uint256",
              "name": "bidId",
              "type": "uint256"
            },
            {
              "indexed": true,
              "internalType": "address",
              "name": "bidder",
              "type": "address"
            }
          ],
          "name": "CancelBid",
          "type": "event"
        },
        {
          "anonymous": false,
          "inputs": [
            {
              "indexed": true,
              "internalType": "address",
              "name": "nftCollectionAddress",
              "type": "address"
            },
            {
              "indexed": true,
              "internalType": "uint256",
              "name": "nftId",
              "type": "uint256"
            },
            {
              "indexed": false,
              "internalType": "address",
              "name": "addressPaymentToken",
              "type": "address"
            },
            {
              "indexed": false,
              "internalType": "uint256",
              "name": "amountPaymentToken",
              "type": "uint256"
            },
            {
              "indexed": false,
              "internalType": "uint256",
              "name": "endTime",
              "type": "uint256"
            },
            {
              "indexed": false,
              "internalType": "address",
              "name": "bidder",
              "type": "address"
            },
            {
              "indexed": true,
              "internalType": "uint256",
              "name": "bidId",
              "type": "uint256"
            }
          ],
          "name": "CreateBid",
          "type": "event"
        },
        {
          "anonymous": false,
          "inputs": [
            {
              "indexed": true,
              "internalType": "address",
              "name": "nftCollectionAddress",
              "type": "address"
            },
            {
              "indexed": true,
              "internalType": "uint256",
              "name": "nftId",
              "type": "uint256"
            }
          ],
          "name": "DeactivateBidding",
          "type": "event"
        },
        {
          "inputs": [
            {
              "internalType": "address",
              "name": "_addressNFTCollection",
              "type": "address"
            },
            {
              "internalType": "uint256",
              "name": "_nftId",
              "type": "uint256"
            },
            {
              "internalType": "uint256",
              "name": "_bidId",
              "type": "uint256"
            }
          ],
          "name": "acceptBid",
          "outputs": [],
          "stateMutability": "nonpayable",
          "type": "function"
        },
        {
          "inputs": [
            {
              "internalType": "address",
              "name": "_addressNFTCollection",
              "type": "address"
            },
            {
              "internalType": "uint256",
              "name": "_nftId",
              "type": "uint256"
            }
          ],
          "name": "activateBidding",
          "outputs": [],
          "stateMutability": "nonpayable",
          "type": "function"
        },
        {
          "inputs": [
            {
              "internalType": "address",
              "name": "_addressNFTCollection",
              "type": "address"
            },
            {
              "internalType": "uint256",
              "name": "_nftId",
              "type": "uint256"
            },
            {
              "internalType": "uint256",
              "name": "_bidId",
              "type": "uint256"
            }
          ],
          "name": "cancelBid",
          "outputs": [],
          "stateMutability": "nonpayable",
          "type": "function"
        },
        {
          "inputs": [
            {
              "components": [
                {
                  "internalType": "address",
                  "name": "addressNFTCollection",
                  "type": "address"
                },
                {
                  "internalType": "uint256",
                  "name": "nftId",
                  "type": "uint256"
                },
                {
                  "internalType": "address",
                  "name": "addressPaymentToken",
                  "type": "address"
                },
                {
                  "internalType": "uint256",
                  "name": "amountPaymentToken",
                  "type": "uint256"
                },
                {
                  "internalType": "uint256",
                  "name": "endTime",
                  "type": "uint256"
                },
                {
                  "internalType": "address",
                  "name": "bidder",
                  "type": "address"
                }
              ],
              "internalType": "struct IMarketPlace.Bid",
              "name": "_bid",
              "type": "tuple"
            }
          ],
          "name": "createBid",
          "outputs": [],
          "stateMutability": "nonpayable",
          "type": "function"
        },
        {
          "inputs": [
            {
              "internalType": "address",
              "name": "_addressNFTCollection",
              "type": "address"
            },
            {
              "internalType": "uint256",
              "name": "_nftId",
              "type": "uint256"
            }
          ],
          "name": "deactivateBidding",
          "outputs": [],
          "stateMutability": "nonpayable",
          "type": "function"
        },
        {
          "inputs": [
            {
              "internalType": "address",
              "name": "_addressAccount",
              "type": "address"
            },
            {
              "internalType": "address",
              "name": "_addressNFTCollection",
              "type": "address"
            }
          ],
          "name": "getAccountBids",
          "outputs": [
            {
              "components": [
                {
                  "internalType": "address",
                  "name": "addressNFTCollection",
                  "type": "address"
                },
                {
                  "internalType": "uint256",
                  "name": "nftId",
                  "type": "uint256"
                },
                {
                  "internalType": "address",
                  "name": "addressPaymentToken",
                  "type": "address"
                },
                {
                  "internalType": "uint256",
                  "name": "amountPaymentToken",
                  "type": "uint256"
                },
                {
                  "internalType": "uint256",
                  "name": "endTime",
                  "type": "uint256"
                },
                {
                  "internalType": "address",
                  "name": "bidder",
                  "type": "address"
                }
              ],
              "internalType": "struct IMarketPlace.Bid[]",
              "name": "",
              "type": "tuple[]"
            }
          ],
          "stateMutability": "view",
          "type": "function"
        },
        {
          "inputs": [
            {
              "internalType": "address",
              "name": "_addressNFTCollection",
              "type": "address"
            },
            {
              "internalType": "uint256",
              "name": "_nftId",
              "type": "uint256"
            }
          ],
          "name": "getNFTActive",
          "outputs": [
            {
              "internalType": "bool",
              "name": "",
              "type": "bool"
            }
          ],
          "stateMutability": "view",
          "type": "function"
        },
        {
          "inputs": [
            {
              "internalType": "address",
              "name": "_addressNFTCollection",
              "type": "address"
            },
            {
              "internalType": "uint256",
              "name": "_nftId",
              "type": "uint256"
            },
            {
              "internalType": "uint256",
              "name": "_bidId",
              "type": "uint256"
            }
          ],
          "name": "getNFTBidInfo",
          "outputs": [
            {
              "components": [
                {
                  "internalType": "address",
                  "name": "addressNFTCollection",
                  "type": "address"
                },
                {
                  "internalType": "uint256",
                  "name": "nftId",
                  "type": "uint256"
                },
                {
                  "internalType": "address",
                  "name": "addressPaymentToken",
                  "type": "address"
                },
                {
                  "internalType": "uint256",
                  "name": "amountPaymentToken",
                  "type": "uint256"
                },
                {
                  "internalType": "uint256",
                  "name": "endTime",
                  "type": "uint256"
                },
                {
                  "internalType": "address",
                  "name": "bidder",
                  "type": "address"
                }
              ],
              "internalType": "struct IMarketPlace.Bid",
              "name": "",
              "type": "tuple"
            }
          ],
          "stateMutability": "view",
          "type": "function"
        },
        {
          "inputs": [
            {
              "internalType": "address",
              "name": "_addressNFTCollection",
              "type": "address"
            },
            {
              "internalType": "uint256",
              "name": "_nftId",
              "type": "uint256"
            }
          ],
          "name": "getNFTBids",
          "outputs": [
            {
              "components": [
                {
                  "internalType": "address",
                  "name": "addressNFTCollection",
                  "type": "address"
                },
                {
                  "internalType": "uint256",
                  "name": "nftId",
                  "type": "uint256"
                },
                {
                  "internalType": "address",
                  "name": "addressPaymentToken",
                  "type": "address"
                },
                {
                  "internalType": "uint256",
                  "name": "amountPaymentToken",
                  "type": "uint256"
                },
                {
                  "internalType": "uint256",
                  "name": "endTime",
                  "type": "uint256"
                },
                {
                  "internalType": "address",
                  "name": "bidder",
                  "type": "address"
                }
              ],
              "internalType": "struct IMarketPlace.Bid[]",
              "name": "",
              "type": "tuple[]"
            }
          ],
          "stateMutability": "view",
          "type": "function"
        },
        {
          "inputs": [
            {
              "internalType": "address",
              "name": "",
              "type": "address"
            },
            {
              "internalType": "address",
              "name": "",
              "type": "address"
            },
            {
              "internalType": "uint256",
              "name": "",
              "type": "uint256"
            },
            {
              "internalType": "bytes",
              "name": "",
              "type": "bytes"
            }
          ],
          "name": "onERC721Received",
          "outputs": [
            {
              "internalType": "bytes4",
              "name": "",
              "type": "bytes4"
            }
          ],
          "stateMutability": "pure",
          "type": "function"
        }
      ],
      "evm": {
        "bytecode": {
          "linkReferences": {},
          "object": "60808060405234610016576113f5908161001c8239f35b600080fdfe60406080815260048036101561001457600080fd5b600091823560e01c80630f8a018014610eee578063150b7a0214610e7c5780632488bc2c14610d0d5780633290463b14610bba5780634be0e21314610b005780634cfb8c76146109c7578063a5982c2d146108f6578063a664c6f414610520578063dd3420e8146104095763e13a40f01461008e57600080fd5b346104055761009c366110b5565b9391906100ab823b1515611121565b60018060a01b038092169384875260209387855281882083895285526100dc6100d688848b2061125f565b506112d3565b9482860196858851169284516331a9108f60e11b815286828201528381602481865afa908c82156103fa5761011c928a92906103cd575b50161515611204565b818b528a8352848b20868c528352610138858c20548b10611291565b6080880195865142111561038c57908b959493929160a08a0194898651168751906370a0823160e01b8252848201528581602481855afa988915610381579861034e575b5060608b0197885110156102fa578551885188516323b872dd60e01b8152918c166001600160a01b031685830190815233602082015260408101919091528f95949392879183919082908990829060600103925af180156102f0576102c3575b508986511692803b156102bf578751632142170760e11b8152339381019384526001600160a01b0390941660208401526040830191909152839183919082908490829060600103925af180156102b557610297575b50508651960151965192519351905191516001600160a01b03938616841681526020810194909452604084015283161660608201529116907f1970bec26d1d5ea6fda160113a05d501272bbe8ad12217089d8eb89d89c9d7219080608081015b0390a480f35b6102a4909493929461117d565b6102b15790918938610231565b8980fd5b85513d84823e3d90fd5b8480fd5b6102e290863d88116102e9575b6102da81836111c3565b810190611247565b50386101dc565b503d6102d0565b88513d87823e3d90fd5b865162461bcd60e51b8152808401869052602860248201527f42696464657220646f65736e2774206861766520656e6f756768205061796d65604482015267373a102a37b5b2b760c11b6064820152608490fd5b9097508481813d831161037a575b61036681836111c3565b810103126103765751963861017c565b8d80fd5b503d61035c565b8851903d90823e3d90fd5b606482858089519262461bcd60e51b845283015260248201527f426964277320656e6454696d6520697320616c72656164792074696d656f75746044820152fd5b6103ed9150863d88116103f3575b6103e581836111c3565b8101906111e5565b38610113565b503d6103db565b8751903d90823e3d90fd5b8280fd5b50903461040557610419366110b5565b929091610424611380565b50610431813b1515611121565b84516331a9108f60e11b81529182018390526020916001600160a01b0391821691908381602481865afa90811561051657946100d6946104fd97946104888a958c956104b69a60c09e916104ff5750161515611204565b80845283825284842083855282526104a4858520548710611291565b8352828152838320918352522061125f565b9151809260a09081600180821b0391828151168552602081015160208601528260408201511660408601526060810151606086015260808101516080860152015116910152565bf35b6103ed9150853d87116103f3576103e581836111c3565b87513d8a823e3d90fd5b50346104055760c03660031901126104055761054561053d6110df565b3b1515611121565b61054d6110f5565b3b156108a4576001600160a01b03806105646110df565b16908061056f6110f5565b1691602493843594815180936331a9108f60e11b82528789830152818360209687935afa90811561089a576105af9186918b916103cd5750161515611204565b836105b86110df565b168852600183528188208689528352600160ff838a20541615150361084b57608435924284111561080a576105eb61110b565b85339116036107c957825163095ea7b360e01b815230818a019081526064356020820181905297839183919082908e90829060400103925af180156107bf576107a2575b50846106396110df565b168952888152828920878a52815282892080549068010000000000000000821015610790579061066e9160018201815561125f565b61077f5760058661067d6110df565b16916bffffffffffffffffffffffff60a01b928382541617815589600182015560028101886106aa6110f5565b1684825416179055886003820155868b8201550190866106c861110b565b1690825416179055846106d96110df565b168952888152828920878a5290528188205460001981019790881161076e575050906102917f306b38d0022072159e71750b54e34acd94b088873763e29e783885e46531097493926107296110df565b926107326110f5565b9661073b61110b565b92516001600160a01b03988916815260208101919091526040810191909152951660608601529116929081906080820190565b634e487b7160e01b89526011905287fd5b634e487b7160e01b8a52898952828afd5b634e487b7160e01b8b5260418a52838bfd5b6107b890823d84116102e9576102da81836111c3565b503861062f565b84513d8c823e3d90fd5b8791601f91606494519362461bcd60e51b85528401528201527f4d73672073656e646572206973206e6f742073657420746f20626964646572006044820152fd5b8791601791606494519362461bcd60e51b85528401528201527f496e76616c696420656e6454696d6520666f72206269640000000000000000006044820152fd5b6025906084938893519362461bcd60e51b85528401528201527f42696464696e67206973206465616374697661746564206f6e20646573697265604482015264190813919560da1b6064820152fd5b83513d8b823e3d90fd5b906020608492519162461bcd60e51b8352820152602660248201527f496e76616c6964205061796d656e7420546f6b656e20636f6e7472616374206160448201526564647265737360d01b6064820152fd5b509034610405578160031936011261040557610910610ffe565b50610919611019565b508151908282019082821067ffffffffffffffff8311176109b25750825260018152825b60208082101561095f5790602091610953611380565b9082850101520161093d565b6109ae838587815190610971826111a7565b808252806020830152808383015280606083015280608083015260a0820152610999836113b2565b526109a3826113b2565b50519182918261102f565b0390f35b604190634e487b7160e01b6000525260246000fd5b5090346104055781600319360112610405576109e1610ffe565b91602435926109f2813b1515611121565b81516331a9108f60e11b81528084018590526001600160a01b03918216936020929091908382602481895afa918215610af65790610a3b92918992610ad7575b50163314611329565b83865260018252828620858752825260ff8387205416610a9657508285526001815281852084865290528320805460ff191690557f3754b7fc2448c88ebb9b6b6f0553a83fe32a8f7f06a60fd124ae326c5feef05f8380a380f35b915162461bcd60e51b815291820152601e60248201527f42696464696e6720697320616c726561647920446541637469766174656400006044820152606490fd5b610aef919250853d87116103f3576103e581836111c3565b9038610a32565b85513d8a823e3d90fd5b508234610bb75781600319360112610bb757610b1a610ffe565b60243590610b2a813b1515611121565b83516331a9108f60e11b81529485018290526020946001600160a01b0391821691908681602481865afa908115610bad57869492869492610b769260ff9891610b905750161515611204565b825260018652828220908252855220541690519015158152f35b610ba791508a3d8c116103f3576103e581836111c3565b8a610113565b86513d87823e3d90fd5b80fd5b509134610bb757610bca366110b5565b919490610bd9863b1515611121565b81516331a9108f60e11b81528581018290526001600160a01b039687169660209182816024818c5afa908115610d0357610c1e91839189916104ff5750161515611204565b8786528582528386208387528252610c3a848720548610611291565b87865285825283862083875282526005610c568686892061125f565b500154163303610cb257849596610c79955285815282862091865252832061125f565b610ca057808280948160059455816001840155816002840155816003840155820155015580f35b5080602492634e487b7160e01b825252fd5b8560849184519162461bcd60e51b8352820152602660248201527f6d73672e73656e646572206973206e6f74206120626964646572206f662074686044820152651a5cc8189a5960d21b6064820152fd5b85513d89823e3d90fd5b509034610405578160031936011261040557610d27610ffe565b9160243592610d38813b1515611121565b81516331a9108f60e11b81528084018590526001600160a01b03918216936020929091908382602481895afa918215610af65790610d8092918992610ad75750163314611329565b838652600182528286208587528252600160ff8488205416151503610e3b5785843b15610bb757835163095ea7b360e01b815230928101928352602083018790529182908190604001038183885af18015610e3157610e1e575b508285526001815281852090848652528320600160ff198254161790557f1efdf83ab2ff49670cb7bdbb66ceb452b7010ec9a57dd1d7d66338e5453c32f58380a380f35b610e2a9095919561117d565b9338610dda565b83513d88823e3d90fd5b915162461bcd60e51b815291820152601c60248201527f42696464696e6720697320616c726561647920416374697661746564000000006044820152606490fd5b50903461040557608036600319011261040557610e97610ffe565b50610ea0611019565b506064359067ffffffffffffffff908183116102bf57366023840112156102bf57820135908111610eea5736910160240111610ee65751630a85bd0160e11b8152602090f35b5080fd5b8380fd5b50919034610ee65782600319360112610ee657610f09610ffe565b91602435610f19843b1515611121565b84516331a9108f60e11b81528381018290526020946001600160a01b03908116918681602481865afa9081156102f05790610f5e92918691610fe75750161515611204565b825281845284822090825283528381209283549267ffffffffffffffff8411610fd4575084519391610f96600585901b8301866111c3565b8385529182528082208185015b848410610fb7578651806109ae888261102f565b600683600192610fc6856112d3565b815201920193019290610fa3565b634e487b7160e01b835260419052602482fd5b6103ed9150883d8a116103f3576103e581836111c3565b600435906001600160a01b038216820361101457565b600080fd5b602435906001600160a01b038216820361101457565b6020908160408183019282815285518094520193019160005b828110611056575050505090565b909192938260c0826110a9600194895160a09081600180821b0391828151168552602081015160208601528260408201511660408601526060810151606086015260808101516080860152015116910152565b01950193929101611048565b6060906003190112611014576004356001600160a01b038116810361101457906024359060443590565b6004356001600160a01b03811681036110145790565b6044356001600160a01b03811681036110145790565b60a4356001600160a01b03811681036110145790565b1561112857565b60405162461bcd60e51b815260206004820152602760248201527f496e76616c6964204e465420436f6c6c656374696f6e20636f6e7472616374206044820152666164647265737360c81b6064820152608490fd5b67ffffffffffffffff811161119157604052565b634e487b7160e01b600052604160045260246000fd5b60c0810190811067ffffffffffffffff82111761119157604052565b90601f8019910116810190811067ffffffffffffffff82111761119157604052565b9081602091031261101457516001600160a01b03811681036110145790565b1561120b57565b60405162461bcd60e51b815260206004820152601460248201527313919508125108191bd95cdb89dd08195e1a5cdd60621b6044820152606490fd5b90816020910312611014575180151581036110145790565b805482101561127b576000526006602060002091020190600090565b634e487b7160e01b600052603260045260246000fd5b1561129857565b60405162461bcd60e51b8152602060048201526013602482015272189a5908125108191bd95cdb89c8195e1a5cdd606a1b6044820152606490fd5b906040516112e0816111a7565b82546001600160a01b03908116825260018401546020830152600284015481166040830152600384015460608301526004840154608083015260059093015490921660a0830152565b1561133057565b60405162461bcd60e51b815260206004820152602260248201527f43616c6c6572206973206e6f7420746865206f776e6572206f6620746865204e604482015261119560f21b6064820152608490fd5b6040519061138d826111a7565b8160a06000918281528260208201528260408201528260608201528260808201520152565b80511561127b576020019056fea26469706673582212203030621b7ba50cf68fe783b2cdfabe12bcaa0769b5417f5c6948044ca33c246364736f6c63430008140033",
          "opcodes": "PUSH1 0x80 DUP1 PUSH1 0x40 MSTORE CALLVALUE PUSH2 0x16 JUMPI PUSH2 0x13F5 SWAP1 DUP2 PUSH2 0x1C DUP3 CODECOPY RETURN JUMPDEST PUSH1 0x0 DUP1 REVERT INVALID PUSH1 0x40 PUSH1 0x80 DUP2 MSTORE PUSH1 0x4 DUP1 CALLDATASIZE LT ISZERO PUSH2 0x14 JUMPI PUSH1 0x0 DUP1 REVERT JUMPDEST PUSH1 0x0 SWAP2 DUP3 CALLDATALOAD PUSH1 0xE0 SHR DUP1 PUSH4 0xF8A0180 EQ PUSH2 0xEEE JUMPI DUP1 PUSH4 0x150B7A02 EQ PUSH2 0xE7C JUMPI DUP1 PUSH4 0x2488BC2C EQ PUSH2 0xD0D JUMPI DUP1 PUSH4 0x3290463B EQ PUSH2 0xBBA JUMPI DUP1 PUSH4 0x4BE0E213 EQ PUSH2 0xB00 JUMPI DUP1 PUSH4 0x4CFB8C76 EQ PUSH2 0x9C7 JUMPI DUP1 PUSH4 0xA5982C2D EQ PUSH2 0x8F6 JUMPI DUP1 PUSH4 0xA664C6F4 EQ PUSH2 0x520 JUMPI DUP1 PUSH4 0xDD3420E8 EQ PUSH2 0x409 JUMPI PUSH4 0xE13A40F0 EQ PUSH2 0x8E JUMPI PUSH1 0x0 DUP1 REVERT JUMPDEST CALLVALUE PUSH2 0x405 JUMPI PUSH2 0x9C CALLDATASIZE PUSH2 0x10B5 JUMP JUMPDEST SWAP4 SWAP2 SWAP1 PUSH2 0xAB DUP3 EXTCODESIZE ISZERO ISZERO PUSH2 0x1121 JUMP JUMPDEST PUSH1 0x1 DUP1 PUSH1 0xA0 SHL SUB DUP1 SWAP3 AND SWAP4 DUP5 DUP8 MSTORE PUSH1 0x20 SWAP4 DUP8 DUP6 MSTORE DUP2 DUP9 KECCAK256 DUP4 DUP10 MSTORE DUP6 MSTORE PUSH2 0xDC PUSH2 0xD6 DUP9 DUP5 DUP12 KECCAK256 PUSH2 0x125F JUMP JUMPDEST POP PUSH2 0x12D3 JUMP JUMPDEST SWAP5 DUP3 DUP7 ADD SWAP7 DUP6 DUP9 MLOAD AND SWAP3 DUP5 MLOAD PUSH4 0x31A9108F PUSH1 0xE1 SHL DUP2 MSTORE DUP7 DUP3 DUP3 ADD MSTORE DUP4 DUP2 PUSH1 0x24 DUP2 DUP7 GAS STATICCALL SWAP1 DUP13 DUP3 ISZERO PUSH2 0x3FA JUMPI PUSH2 0x11C SWAP3 DUP11 SWAP3 SWAP1 PUSH2 0x3CD JUMPI JUMPDEST POP AND ISZERO ISZERO PUSH2 0x1204 JUMP JUMPDEST DUP2 DUP12 MSTORE DUP11 DUP4 MSTORE DUP5 DUP12 KECCAK256 DUP7 DUP13 MSTORE DUP4 MSTORE PUSH2 0x138 DUP6 DUP13 KECCAK256 SLOAD DUP12 LT PUSH2 0x1291 JUMP JUMPDEST PUSH1 0x80 DUP9 ADD SWAP6 DUP7 MLOAD TIMESTAMP GT ISZERO PUSH2 0x38C JUMPI SWAP1 DUP12 SWAP6 SWAP5 SWAP4 SWAP3 SWAP2 PUSH1 0xA0 DUP11 ADD SWAP5 DUP10 DUP7 MLOAD AND DUP8 MLOAD SWAP1 PUSH4 0x70A08231 PUSH1 0xE0 SHL DUP3 MSTORE DUP5 DUP3 ADD MSTORE DUP6 DUP2 PUSH1 0x24 DUP2 DUP6 GAS STATICCALL SWAP9 DUP10 ISZERO PUSH2 0x381 JUMPI SWAP9 PUSH2 0x34E JUMPI JUMPDEST POP PUSH1 0x60 DUP12 ADD SWAP8 DUP9 MLOAD LT ISZERO PUSH2 0x2FA JUMPI DUP6 MLOAD DUP9 MLOAD DUP9 MLOAD PUSH4 0x23B872DD PUSH1 0xE0 SHL DUP2 MSTORE SWAP2 DUP13 AND PUSH1 0x1 PUSH1 0x1 PUSH1 0xA0 SHL SUB AND DUP6 DUP4 ADD SWAP1 DUP2 MSTORE CALLER PUSH1 0x20 DUP3 ADD MSTORE PUSH1 0x40 DUP2 ADD SWAP2 SWAP1 SWAP2 MSTORE DUP16 SWAP6 SWAP5 SWAP4 SWAP3 DUP8 SWAP2 DUP4 SWAP2 SWAP1 DUP3 SWAP1 DUP10 SWAP1 DUP3 SWAP1 PUSH1 0x60 ADD SUB SWAP3 GAS CALL DUP1 ISZERO PUSH2 0x2F0 JUMPI PUSH2 0x2C3 JUMPI JUMPDEST POP DUP10 DUP7 MLOAD AND SWAP3 DUP1 EXTCODESIZE ISZERO PUSH2 0x2BF JUMPI DUP8 MLOAD PUSH4 0x21421707 PUSH1 0xE1 SHL DUP2 MSTORE CALLER SWAP4 DUP2 ADD SWAP4 DUP5 MSTORE PUSH1 0x1 PUSH1 0x1 PUSH1 0xA0 SHL SUB SWAP1 SWAP5 AND PUSH1 0x20 DUP5 ADD MSTORE PUSH1 0x40 DUP4 ADD SWAP2 SWAP1 SWAP2 MSTORE DUP4 SWAP2 DUP4 SWAP2 SWAP1 DUP3 SWAP1 DUP5 SWAP1 DUP3 SWAP1 PUSH1 0x60 ADD SUB SWAP3 GAS CALL DUP1 ISZERO PUSH2 0x2B5 JUMPI PUSH2 0x297 JUMPI JUMPDEST POP POP DUP7 MLOAD SWAP7 ADD MLOAD SWAP7 MLOAD SWAP3 MLOAD SWAP4 MLOAD SWAP1 MLOAD SWAP2 MLOAD PUSH1 0x1 PUSH1 0x1 PUSH1 0xA0 SHL SUB SWAP4 DUP7 AND DUP5 AND DUP2 MSTORE PUSH1 0x20 DUP2 ADD SWAP5 SWAP1 SWAP5 MSTORE PUSH1 0x40 DUP5 ADD MSTORE DUP4 AND AND PUSH1 0x60 DUP3 ADD MSTORE SWAP2 AND SWAP1 PUSH32 0x1970BEC26D1D5EA6FDA160113A05D501272BBE8AD12217089D8EB89D89C9D721 SWAP1 DUP1 PUSH1 0x80 DUP2 ADD JUMPDEST SUB SWAP1 LOG4 DUP1 RETURN JUMPDEST PUSH2 0x2A4 SWAP1 SWAP5 SWAP4 SWAP3 SWAP5 PUSH2 0x117D JUMP JUMPDEST PUSH2 0x2B1 JUMPI SWAP1 SWAP2 DUP10 CODESIZE PUSH2 0x231 JUMP JUMPDEST DUP10 DUP1 REVERT JUMPDEST DUP6 MLOAD RETURNDATASIZE DUP5 DUP3 RETURNDATACOPY RETURNDATASIZE SWAP1 REVERT JUMPDEST DUP5 DUP1 REVERT JUMPDEST PUSH2 0x2E2 SWAP1 DUP7 RETURNDATASIZE DUP9 GT PUSH2 0x2E9 JUMPI JUMPDEST PUSH2 0x2DA DUP2 DUP4 PUSH2 0x11C3 JUMP JUMPDEST DUP2 ADD SWAP1 PUSH2 0x1247 JUMP JUMPDEST POP CODESIZE PUSH2 0x1DC JUMP JUMPDEST POP RETURNDATASIZE PUSH2 0x2D0 JUMP JUMPDEST DUP9 MLOAD RETURNDATASIZE DUP8 DUP3 RETURNDATACOPY RETURNDATASIZE SWAP1 REVERT JUMPDEST DUP7 MLOAD PUSH3 0x461BCD PUSH1 0xE5 SHL DUP2 MSTORE DUP1 DUP5 ADD DUP7 SWAP1 MSTORE PUSH1 0x28 PUSH1 0x24 DUP3 ADD MSTORE PUSH32 0x42696464657220646F65736E2774206861766520656E6F756768205061796D65 PUSH1 0x44 DUP3 ADD MSTORE PUSH8 0x373A102A37B5B2B7 PUSH1 0xC1 SHL PUSH1 0x64 DUP3 ADD MSTORE PUSH1 0x84 SWAP1 REVERT JUMPDEST SWAP1 SWAP8 POP DUP5 DUP2 DUP2 RETURNDATASIZE DUP4 GT PUSH2 0x37A JUMPI JUMPDEST PUSH2 0x366 DUP2 DUP4 PUSH2 0x11C3 JUMP JUMPDEST DUP2 ADD SUB SLT PUSH2 0x376 JUMPI MLOAD SWAP7 CODESIZE PUSH2 0x17C JUMP JUMPDEST DUP14 DUP1 REVERT JUMPDEST POP RETURNDATASIZE PUSH2 0x35C JUMP JUMPDEST DUP9 MLOAD SWAP1 RETURNDATASIZE SWAP1 DUP3 RETURNDATACOPY RETURNDATASIZE SWAP1 REVERT JUMPDEST PUSH1 0x64 DUP3 DUP6 DUP1 DUP10 MLOAD SWAP3 PUSH3 0x461BCD PUSH1 0xE5 SHL DUP5 MSTORE DUP4 ADD MSTORE PUSH1 0x24 DUP3 ADD MSTORE PUSH32 0x426964277320656E6454696D6520697320616C72656164792074696D656F7574 PUSH1 0x44 DUP3 ADD MSTORE REVERT JUMPDEST PUSH2 0x3ED SWAP2 POP DUP7 RETURNDATASIZE DUP9 GT PUSH2 0x3F3 JUMPI JUMPDEST PUSH2 0x3E5 DUP2 DUP4 PUSH2 0x11C3 JUMP JUMPDEST DUP2 ADD SWAP1 PUSH2 0x11E5 JUMP JUMPDEST CODESIZE PUSH2 0x113 JUMP JUMPDEST POP RETURNDATASIZE PUSH2 0x3DB JUMP JUMPDEST DUP8 MLOAD SWAP1 RETURNDATASIZE SWAP1 DUP3 RETURNDATACOPY RETURNDATASIZE SWAP1 REVERT JUMPDEST DUP3 DUP1 REVERT JUMPDEST POP SWAP1 CALLVALUE PUSH2 0x405 JUMPI PUSH2 0x419 CALLDATASIZE PUSH2 0x10B5 JUMP JUMPDEST SWAP3 SWAP1 SWAP2 PUSH2 0x424 PUSH2 0x1380 JUMP JUMPDEST POP PUSH2 0x431 DUP2 EXTCODESIZE ISZERO ISZERO PUSH2 0x1121 JUMP JUMPDEST DUP5 MLOAD PUSH4 0x31A9108F PUSH1 0xE1 SHL DUP2 MSTORE SWAP2 DUP3 ADD DUP4 SWAP1 MSTORE PUSH1 0x20 SWAP2 PUSH1 0x1 PUSH1 0x1 PUSH1 0xA0 SHL SUB SWAP2 DUP3 AND SWAP2 SWAP1 DUP4 DUP2 PUSH1 0x24 DUP2 DUP7 GAS STATICCALL SWAP1 DUP2 ISZERO PUSH2 0x516 JUMPI SWAP5 PUSH2 0xD6 SWAP5 PUSH2 0x4FD SWAP8 SWAP5 PUSH2 0x488 DUP11 SWAP6 DUP13 SWAP6 PUSH2 0x4B6 SWAP11 PUSH1 0xC0 SWAP15 SWAP2 PUSH2 0x4FF JUMPI POP AND ISZERO ISZERO PUSH2 0x1204 JUMP JUMPDEST DUP1 DUP5 MSTORE DUP4 DUP3 MSTORE DUP5 DUP5 KECCAK256 DUP4 DUP6 MSTORE DUP3 MSTORE PUSH2 0x4A4 DUP6 DUP6 KECCAK256 SLOAD DUP8 LT PUSH2 0x1291 JUMP JUMPDEST DUP4 MSTORE DUP3 DUP2 MSTORE DUP4 DUP4 KECCAK256 SWAP2 DUP4 MSTORE MSTORE KECCAK256 PUSH2 0x125F JUMP JUMPDEST SWAP2 MLOAD DUP1 SWAP3 PUSH1 0xA0 SWAP1 DUP2 PUSH1 0x1 DUP1 DUP3 SHL SUB SWAP2 DUP3 DUP2 MLOAD AND DUP6 MSTORE PUSH1 0x20 DUP2 ADD MLOAD PUSH1 0x20 DUP7 ADD MSTORE DUP3 PUSH1 0x40 DUP3 ADD MLOAD AND PUSH1 0x40 DUP7 ADD MSTORE PUSH1 0x60 DUP2 ADD MLOAD PUSH1 0x60 DUP7 ADD MSTORE PUSH1 0x80 DUP2 ADD MLOAD PUSH1 0x80 DUP7 ADD MSTORE ADD MLOAD AND SWAP2 ADD MSTORE JUMP JUMPDEST RETURN JUMPDEST PUSH2 0x3ED SWAP2 POP DUP6 RETURNDATASIZE DUP8 GT PUSH2 0x3F3 JUMPI PUSH2 0x3E5 DUP2 DUP4 PUSH2 0x11C3 JUMP JUMPDEST DUP8 MLOAD RETURNDATASIZE DUP11 DUP3 RETURNDATACOPY RETURNDATASIZE SWAP1 REVERT JUMPDEST POP CALLVALUE PUSH2 0x405 JUMPI PUSH1 0xC0 CALLDATASIZE PUSH1 0x3 NOT ADD SLT PUSH2 0x405 JUMPI PUSH2 0x545 PUSH2 0x53D PUSH2 0x10DF JUMP JUMPDEST EXTCODESIZE ISZERO ISZERO PUSH2 0x1121 JUMP JUMPDEST PUSH2 0x54D PUSH2 0x10F5 JUMP JUMPDEST EXTCODESIZE ISZERO PUSH2 0x8A4 JUMPI PUSH1 0x1 PUSH1 0x1 PUSH1 0xA0 SHL SUB DUP1 PUSH2 0x564 PUSH2 0x10DF JUMP JUMPDEST AND SWAP1 DUP1 PUSH2 0x56F PUSH2 0x10F5 JUMP JUMPDEST AND SWAP2 PUSH1 0x24 SWAP4 DUP5 CALLDATALOAD SWAP5 DUP2 MLOAD DUP1 SWAP4 PUSH4 0x31A9108F PUSH1 0xE1 SHL DUP3 MSTORE DUP8 DUP10 DUP4 ADD MSTORE DUP2 DUP4 PUSH1 0x20 SWAP7 DUP8 SWAP4 GAS STATICCALL SWAP1 DUP2 ISZERO PUSH2 0x89A JUMPI PUSH2 0x5AF SWAP2 DUP7 SWAP2 DUP12 SWAP2 PUSH2 0x3CD JUMPI POP AND ISZERO ISZERO PUSH2 0x1204 JUMP JUMPDEST DUP4 PUSH2 0x5B8 PUSH2 0x10DF JUMP JUMPDEST AND DUP9 MSTORE PUSH1 0x1 DUP4 MSTORE DUP2 DUP9 KECCAK256 DUP7 DUP10 MSTORE DUP4 MSTORE PUSH1 0x1 PUSH1 0xFF DUP4 DUP11 KECCAK256 SLOAD AND ISZERO ISZERO SUB PUSH2 0x84B JUMPI PUSH1 0x84 CALLDATALOAD SWAP3 TIMESTAMP DUP5 GT ISZERO PUSH2 0x80A JUMPI PUSH2 0x5EB PUSH2 0x110B JUMP JUMPDEST DUP6 CALLER SWAP2 AND SUB PUSH2 0x7C9 JUMPI DUP3 MLOAD PUSH4 0x95EA7B3 PUSH1 0xE0 SHL DUP2 MSTORE ADDRESS DUP2 DUP11 ADD SWAP1 DUP2 MSTORE PUSH1 0x64 CALLDATALOAD PUSH1 0x20 DUP3 ADD DUP2 SWAP1 MSTORE SWAP8 DUP4 SWAP2 DUP4 SWAP2 SWAP1 DUP3 SWAP1 DUP15 SWAP1 DUP3 SWAP1 PUSH1 0x40 ADD SUB SWAP3 GAS CALL DUP1 ISZERO PUSH2 0x7BF JUMPI PUSH2 0x7A2 JUMPI JUMPDEST POP DUP5 PUSH2 0x639 PUSH2 0x10DF JUMP JUMPDEST AND DUP10 MSTORE DUP9 DUP2 MSTORE DUP3 DUP10 KECCAK256 DUP8 DUP11 MSTORE DUP2 MSTORE DUP3 DUP10 KECCAK256 DUP1 SLOAD SWAP1 PUSH9 0x10000000000000000 DUP3 LT ISZERO PUSH2 0x790 JUMPI SWAP1 PUSH2 0x66E SWAP2 PUSH1 0x1 DUP3 ADD DUP2 SSTORE PUSH2 0x125F JUMP JUMPDEST PUSH2 0x77F JUMPI PUSH1 0x5 DUP7 PUSH2 0x67D PUSH2 0x10DF JUMP JUMPDEST AND SWAP2 PUSH12 0xFFFFFFFFFFFFFFFFFFFFFFFF PUSH1 0xA0 SHL SWAP3 DUP4 DUP3 SLOAD AND OR DUP2 SSTORE DUP10 PUSH1 0x1 DUP3 ADD SSTORE PUSH1 0x2 DUP2 ADD DUP9 PUSH2 0x6AA PUSH2 0x10F5 JUMP JUMPDEST AND DUP5 DUP3 SLOAD AND OR SWAP1 SSTORE DUP9 PUSH1 0x3 DUP3 ADD SSTORE DUP7 DUP12 DUP3 ADD SSTORE ADD SWAP1 DUP7 PUSH2 0x6C8 PUSH2 0x110B JUMP JUMPDEST AND SWAP1 DUP3 SLOAD AND OR SWAP1 SSTORE DUP5 PUSH2 0x6D9 PUSH2 0x10DF JUMP JUMPDEST AND DUP10 MSTORE DUP9 DUP2 MSTORE DUP3 DUP10 KECCAK256 DUP8 DUP11 MSTORE SWAP1 MSTORE DUP2 DUP9 KECCAK256 SLOAD PUSH1 0x0 NOT DUP2 ADD SWAP8 SWAP1 DUP9 GT PUSH2 0x76E JUMPI POP POP SWAP1 PUSH2 0x291 PUSH32 0x306B38D0022072159E71750B54E34ACD94B088873763E29E783885E465310974 SWAP4 SWAP3 PUSH2 0x729 PUSH2 0x10DF JUMP JUMPDEST SWAP3 PUSH2 0x732 PUSH2 0x10F5 JUMP JUMPDEST SWAP7 PUSH2 0x73B PUSH2 0x110B JUMP JUMPDEST SWAP3 MLOAD PUSH1 0x1 PUSH1 0x1 PUSH1 0xA0 SHL SUB SWAP9 DUP10 AND DUP2 MSTORE PUSH1 0x20 DUP2 ADD SWAP2 SWAP1 SWAP2 MSTORE PUSH1 0x40 DUP2 ADD SWAP2 SWAP1 SWAP2 MSTORE SWAP6 AND PUSH1 0x60 DUP7 ADD MSTORE SWAP2 AND SWAP3 SWAP1 DUP2 SWAP1 PUSH1 0x80 DUP3 ADD SWAP1 JUMP JUMPDEST PUSH4 0x4E487B71 PUSH1 0xE0 SHL DUP10 MSTORE PUSH1 0x11 SWAP1 MSTORE DUP8 REVERT JUMPDEST PUSH4 0x4E487B71 PUSH1 0xE0 SHL DUP11 MSTORE DUP10 DUP10 MSTORE DUP3 DUP11 REVERT JUMPDEST PUSH4 0x4E487B71 PUSH1 0xE0 SHL DUP12 MSTORE PUSH1 0x41 DUP11 MSTORE DUP4 DUP12 REVERT JUMPDEST PUSH2 0x7B8 SWAP1 DUP3 RETURNDATASIZE DUP5 GT PUSH2 0x2E9 JUMPI PUSH2 0x2DA DUP2 DUP4 PUSH2 0x11C3 JUMP JUMPDEST POP CODESIZE PUSH2 0x62F JUMP JUMPDEST DUP5 MLOAD RETURNDATASIZE DUP13 DUP3 RETURNDATACOPY RETURNDATASIZE SWAP1 REVERT JUMPDEST DUP8 SWAP2 PUSH1 0x1F SWAP2 PUSH1 0x64 SWAP5 MLOAD SWAP4 PUSH3 0x461BCD PUSH1 0xE5 SHL DUP6 MSTORE DUP5 ADD MSTORE DUP3 ADD MSTORE PUSH32 0x4D73672073656E646572206973206E6F742073657420746F2062696464657200 PUSH1 0x44 DUP3 ADD MSTORE REVERT JUMPDEST DUP8 SWAP2 PUSH1 0x17 SWAP2 PUSH1 0x64 SWAP5 MLOAD SWAP4 PUSH3 0x461BCD PUSH1 0xE5 SHL DUP6 MSTORE DUP5 ADD MSTORE DUP3 ADD MSTORE PUSH32 0x496E76616C696420656E6454696D6520666F7220626964000000000000000000 PUSH1 0x44 DUP3 ADD MSTORE REVERT JUMPDEST PUSH1 0x25 SWAP1 PUSH1 0x84 SWAP4 DUP9 SWAP4 MLOAD SWAP4 PUSH3 0x461BCD PUSH1 0xE5 SHL DUP6 MSTORE DUP5 ADD MSTORE DUP3 ADD MSTORE PUSH32 0x42696464696E67206973206465616374697661746564206F6E20646573697265 PUSH1 0x44 DUP3 ADD MSTORE PUSH5 0x1908139195 PUSH1 0xDA SHL PUSH1 0x64 DUP3 ADD MSTORE REVERT JUMPDEST DUP4 MLOAD RETURNDATASIZE DUP12 DUP3 RETURNDATACOPY RETURNDATASIZE SWAP1 REVERT JUMPDEST SWAP1 PUSH1 0x20 PUSH1 0x84 SWAP3 MLOAD SWAP2 PUSH3 0x461BCD PUSH1 0xE5 SHL DUP4 MSTORE DUP3 ADD MSTORE PUSH1 0x26 PUSH1 0x24 DUP3 ADD MSTORE PUSH32 0x496E76616C6964205061796D656E7420546F6B656E20636F6E74726163742061 PUSH1 0x44 DUP3 ADD MSTORE PUSH6 0x646472657373 PUSH1 0xD0 SHL PUSH1 0x64 DUP3 ADD MSTORE REVERT JUMPDEST POP SWAP1 CALLVALUE PUSH2 0x405 JUMPI DUP2 PUSH1 0x3 NOT CALLDATASIZE ADD SLT PUSH2 0x405 JUMPI PUSH2 0x910 PUSH2 0xFFE JUMP JUMPDEST POP PUSH2 0x919 PUSH2 0x1019 JUMP JUMPDEST POP DUP2 MLOAD SWAP1 DUP3 DUP3 ADD SWAP1 DUP3 DUP3 LT PUSH8 0xFFFFFFFFFFFFFFFF DUP4 GT OR PUSH2 0x9B2 JUMPI POP DUP3 MSTORE PUSH1 0x1 DUP2 MSTORE DUP3 JUMPDEST PUSH1 0x20 DUP1 DUP3 LT ISZERO PUSH2 0x95F JUMPI SWAP1 PUSH1 0x20 SWAP2 PUSH2 0x953 PUSH2 0x1380 JUMP JUMPDEST SWAP1 DUP3 DUP6 ADD ADD MSTORE ADD PUSH2 0x93D JUMP JUMPDEST PUSH2 0x9AE DUP4 DUP6 DUP8 DUP2 MLOAD SWAP1 PUSH2 0x971 DUP3 PUSH2 0x11A7 JUMP JUMPDEST DUP1 DUP3 MSTORE DUP1 PUSH1 0x20 DUP4 ADD MSTORE DUP1 DUP4 DUP4 ADD MSTORE DUP1 PUSH1 0x60 DUP4 ADD MSTORE DUP1 PUSH1 0x80 DUP4 ADD MSTORE PUSH1 0xA0 DUP3 ADD MSTORE PUSH2 0x999 DUP4 PUSH2 0x13B2 JUMP JUMPDEST MSTORE PUSH2 0x9A3 DUP3 PUSH2 0x13B2 JUMP JUMPDEST POP MLOAD SWAP2 DUP3 SWAP2 DUP3 PUSH2 0x102F JUMP JUMPDEST SUB SWAP1 RETURN JUMPDEST PUSH1 0x41 SWAP1 PUSH4 0x4E487B71 PUSH1 0xE0 SHL PUSH1 0x0 MSTORE MSTORE PUSH1 0x24 PUSH1 0x0 REVERT JUMPDEST POP SWAP1 CALLVALUE PUSH2 0x405 JUMPI DUP2 PUSH1 0x3 NOT CALLDATASIZE ADD SLT PUSH2 0x405 JUMPI PUSH2 0x9E1 PUSH2 0xFFE JUMP JUMPDEST SWAP2 PUSH1 0x24 CALLDATALOAD SWAP3 PUSH2 0x9F2 DUP2 EXTCODESIZE ISZERO ISZERO PUSH2 0x1121 JUMP JUMPDEST DUP2 MLOAD PUSH4 0x31A9108F PUSH1 0xE1 SHL DUP2 MSTORE DUP1 DUP5 ADD DUP6 SWAP1 MSTORE PUSH1 0x1 PUSH1 0x1 PUSH1 0xA0 SHL SUB SWAP2 DUP3 AND SWAP4 PUSH1 0x20 SWAP3 SWAP1 SWAP2 SWAP1 DUP4 DUP3 PUSH1 0x24 DUP2 DUP10 GAS STATICCALL SWAP2 DUP3 ISZERO PUSH2 0xAF6 JUMPI SWAP1 PUSH2 0xA3B SWAP3 SWAP2 DUP10 SWAP3 PUSH2 0xAD7 JUMPI JUMPDEST POP AND CALLER EQ PUSH2 0x1329 JUMP JUMPDEST DUP4 DUP7 MSTORE PUSH1 0x1 DUP3 MSTORE DUP3 DUP7 KECCAK256 DUP6 DUP8 MSTORE DUP3 MSTORE PUSH1 0xFF DUP4 DUP8 KECCAK256 SLOAD AND PUSH2 0xA96 JUMPI POP DUP3 DUP6 MSTORE PUSH1 0x1 DUP2 MSTORE DUP2 DUP6 KECCAK256 DUP5 DUP7 MSTORE SWAP1 MSTORE DUP4 KECCAK256 DUP1 SLOAD PUSH1 0xFF NOT AND SWAP1 SSTORE PUSH32 0x3754B7FC2448C88EBB9B6B6F0553A83FE32A8F7F06A60FD124AE326C5FEEF05F DUP4 DUP1 LOG3 DUP1 RETURN JUMPDEST SWAP2 MLOAD PUSH3 0x461BCD PUSH1 0xE5 SHL DUP2 MSTORE SWAP2 DUP3 ADD MSTORE PUSH1 0x1E PUSH1 0x24 DUP3 ADD MSTORE PUSH32 0x42696464696E6720697320616C72656164792044654163746976617465640000 PUSH1 0x44 DUP3 ADD MSTORE PUSH1 0x64 SWAP1 REVERT JUMPDEST PUSH2 0xAEF SWAP2 SWAP3 POP DUP6 RETURNDATASIZE DUP8 GT PUSH2 0x3F3 JUMPI PUSH2 0x3E5 DUP2 DUP4 PUSH2 0x11C3 JUMP JUMPDEST SWAP1 CODESIZE PUSH2 0xA32 JUMP JUMPDEST DUP6 MLOAD RETURNDATASIZE DUP11 DUP3 RETURNDATACOPY RETURNDATASIZE SWAP1 REVERT JUMPDEST POP DUP3 CALLVALUE PUSH2 0xBB7 JUMPI DUP2 PUSH1 0x3 NOT CALLDATASIZE ADD SLT PUSH2 0xBB7 JUMPI PUSH2 0xB1A PUSH2 0xFFE JUMP JUMPDEST PUSH1 0x24 CALLDATALOAD SWAP1 PUSH2 0xB2A DUP2 EXTCODESIZE ISZERO ISZERO PUSH2 0x1121 JUMP JUMPDEST DUP4 MLOAD PUSH4 0x31A9108F PUSH1 0xE1 SHL DUP2 MSTORE SWAP5 DUP6 ADD DUP3 SWAP1 MSTORE PUSH1 0x20 SWAP5 PUSH1 0x1 PUSH1 0x1 PUSH1 0xA0 SHL SUB SWAP2 DUP3 AND SWAP2 SWAP1 DUP7 DUP2 PUSH1 0x24 DUP2 DUP7 GAS STATICCALL SWAP1 DUP2 ISZERO PUSH2 0xBAD JUMPI DUP7 SWAP5 SWAP3 DUP7 SWAP5 SWAP3 PUSH2 0xB76 SWAP3 PUSH1 0xFF SWAP9 SWAP2 PUSH2 0xB90 JUMPI POP AND ISZERO ISZERO PUSH2 0x1204 JUMP JUMPDEST DUP3 MSTORE PUSH1 0x1 DUP7 MSTORE DUP3 DUP3 KECCAK256 SWAP1 DUP3 MSTORE DUP6 MSTORE KECCAK256 SLOAD AND SWAP1 MLOAD SWAP1 ISZERO ISZERO DUP2 MSTORE RETURN JUMPDEST PUSH2 0xBA7 SWAP2 POP DUP11 RETURNDATASIZE DUP13 GT PUSH2 0x3F3 JUMPI PUSH2 0x3E5 DUP2 DUP4 PUSH2 0x11C3 JUMP JUMPDEST DUP11 PUSH2 0x113 JUMP JUMPDEST DUP7 MLOAD RETURNDATASIZE DUP8 DUP3 RETURNDATACOPY RETURNDATASIZE SWAP1 REVERT JUMPDEST DUP1 REVERT JUMPDEST POP SWAP2 CALLVALUE PUSH2 0xBB7 JUMPI PUSH2 0xBCA CALLDATASIZE PUSH2 0x10B5 JUMP JUMPDEST SWAP2 SWAP5 SWAP1 PUSH2 0xBD9 DUP7 EXTCODESIZE ISZERO ISZERO PUSH2 0x1121 JUMP JUMPDEST DUP2 MLOAD PUSH4 0x31A9108F PUSH1 0xE1 SHL DUP2 MSTORE DUP6 DUP2 ADD DUP3 SWAP1 MSTORE PUSH1 0x1 PUSH1 0x1 PUSH1 0xA0 SHL SUB SWAP7 DUP8 AND SWAP7 PUSH1 0x20 SWAP2 DUP3 DUP2 PUSH1 0x24 DUP2 DUP13 GAS STATICCALL SWAP1 DUP2 ISZERO PUSH2 0xD03 JUMPI PUSH2 0xC1E SWAP2 DUP4 SWAP2 DUP10 SWAP2 PUSH2 0x4FF JUMPI POP AND ISZERO ISZERO PUSH2 0x1204 JUMP JUMPDEST DUP8 DUP7 MSTORE DUP6 DUP3 MSTORE DUP4 DUP7 KECCAK256 DUP4 DUP8 MSTORE DUP3 MSTORE PUSH2 0xC3A DUP5 DUP8 KECCAK256 SLOAD DUP7 LT PUSH2 0x1291 JUMP JUMPDEST DUP8 DUP7 MSTORE DUP6 DUP3 MSTORE DUP4 DUP7 KECCAK256 DUP4 DUP8 MSTORE DUP3 MSTORE PUSH1 0x5 PUSH2 0xC56 DUP7 DUP7 DUP10 KECCAK256 PUSH2 0x125F JUMP JUMPDEST POP ADD SLOAD AND CALLER SUB PUSH2 0xCB2 JUMPI DUP5 SWAP6 SWAP7 PUSH2 0xC79 SWAP6 MSTORE DUP6 DUP2 MSTORE DUP3 DUP7 KECCAK256 SWAP2 DUP7 MSTORE MSTORE DUP4 KECCAK256 PUSH2 0x125F JUMP JUMPDEST PUSH2 0xCA0 JUMPI DUP1 DUP3 DUP1 SWAP5 DUP2 PUSH1 0x5 SWAP5 SSTORE DUP2 PUSH1 0x1 DUP5 ADD SSTORE DUP2 PUSH1 0x2 DUP5 ADD SSTORE DUP2 PUSH1 0x3 DUP5 ADD SSTORE DUP3 ADD SSTORE ADD SSTORE DUP1 RETURN JUMPDEST POP DUP1 PUSH1 0x24 SWAP3 PUSH4 0x4E487B71 PUSH1 0xE0 SHL DUP3 MSTORE MSTORE REVERT JUMPDEST DUP6 PUSH1 0x84 SWAP2 DUP5 MLOAD SWAP2 PUSH3 0x461BCD PUSH1 0xE5 SHL DUP4 MSTORE DUP3 ADD MSTORE PUSH1 0x26 PUSH1 0x24 DUP3 ADD MSTORE PUSH32 0x6D73672E73656E646572206973206E6F74206120626964646572206F66207468 PUSH1 0x44 DUP3 ADD MSTORE PUSH6 0x1A5CC8189A59 PUSH1 0xD2 SHL PUSH1 0x64 DUP3 ADD MSTORE REVERT JUMPDEST DUP6 MLOAD RETURNDATASIZE DUP10 DUP3 RETURNDATACOPY RETURNDATASIZE SWAP1 REVERT JUMPDEST POP SWAP1 CALLVALUE PUSH2 0x405 JUMPI DUP2 PUSH1 0x3 NOT CALLDATASIZE ADD SLT PUSH2 0x405 JUMPI PUSH2 0xD27 PUSH2 0xFFE JUMP JUMPDEST SWAP2 PUSH1 0x24 CALLDATALOAD SWAP3 PUSH2 0xD38 DUP2 EXTCODESIZE ISZERO ISZERO PUSH2 0x1121 JUMP JUMPDEST DUP2 MLOAD PUSH4 0x31A9108F PUSH1 0xE1 SHL DUP2 MSTORE DUP1 DUP5 ADD DUP6 SWAP1 MSTORE PUSH1 0x1 PUSH1 0x1 PUSH1 0xA0 SHL SUB SWAP2 DUP3 AND SWAP4 PUSH1 0x20 SWAP3 SWAP1 SWAP2 SWAP1 DUP4 DUP3 PUSH1 0x24 DUP2 DUP10 GAS STATICCALL SWAP2 DUP3 ISZERO PUSH2 0xAF6 JUMPI SWAP1 PUSH2 0xD80 SWAP3 SWAP2 DUP10 SWAP3 PUSH2 0xAD7 JUMPI POP AND CALLER EQ PUSH2 0x1329 JUMP JUMPDEST DUP4 DUP7 MSTORE PUSH1 0x1 DUP3 MSTORE DUP3 DUP7 KECCAK256 DUP6 DUP8 MSTORE DUP3 MSTORE PUSH1 0x1 PUSH1 0xFF DUP5 DUP9 KECCAK256 SLOAD AND ISZERO ISZERO SUB PUSH2 0xE3B JUMPI DUP6 DUP5 EXTCODESIZE ISZERO PUSH2 0xBB7 JUMPI DUP4 MLOAD PUSH4 0x95EA7B3 PUSH1 0xE0 SHL DUP2 MSTORE ADDRESS SWAP3 DUP2 ADD SWAP3 DUP4 MSTORE PUSH1 0x20 DUP4 ADD DUP8 SWAP1 MSTORE SWAP2 DUP3 SWAP1 DUP2 SWAP1 PUSH1 0x40 ADD SUB DUP2 DUP4 DUP9 GAS CALL DUP1 ISZERO PUSH2 0xE31 JUMPI PUSH2 0xE1E JUMPI JUMPDEST POP DUP3 DUP6 MSTORE PUSH1 0x1 DUP2 MSTORE DUP2 DUP6 KECCAK256 SWAP1 DUP5 DUP7 MSTORE MSTORE DUP4 KECCAK256 PUSH1 0x1 PUSH1 0xFF NOT DUP3 SLOAD AND OR SWAP1 SSTORE PUSH32 0x1EFDF83AB2FF49670CB7BDBB66CEB452B7010EC9A57DD1D7D66338E5453C32F5 DUP4 DUP1 LOG3 DUP1 RETURN JUMPDEST PUSH2 0xE2A SWAP1 SWAP6 SWAP2 SWAP6 PUSH2 0x117D JUMP JUMPDEST SWAP4 CODESIZE PUSH2 0xDDA JUMP JUMPDEST DUP4 MLOAD RETURNDATASIZE DUP9 DUP3 RETURNDATACOPY RETURNDATASIZE SWAP1 REVERT JUMPDEST SWAP2 MLOAD PUSH3 0x461BCD PUSH1 0xE5 SHL DUP2 MSTORE SWAP2 DUP3 ADD MSTORE PUSH1 0x1C PUSH1 0x24 DUP3 ADD MSTORE PUSH32 0x42696464696E6720697320616C72656164792041637469766174656400000000 PUSH1 0x44 DUP3 ADD MSTORE PUSH1 0x64 SWAP1 REVERT JUMPDEST POP SWAP1 CALLVALUE PUSH2 0x405 JUMPI PUSH1 0x80 CALLDATASIZE PUSH1 0x3 NOT ADD SLT PUSH2 0x405 JUMPI PUSH2 0xE97 PUSH2 0xFFE JUMP JUMPDEST POP PUSH2 0xEA0 PUSH2 0x1019 JUMP JUMPDEST POP PUSH1 0x64 CALLDATALOAD SWAP1 PUSH8 0xFFFFFFFFFFFFFFFF SWAP1 DUP2 DUP4 GT PUSH2 0x2BF JUMPI CALLDATASIZE PUSH1 0x23 DUP5 ADD SLT ISZERO PUSH2 0x2BF JUMPI DUP3 ADD CALLDATALOAD SWAP1 DUP2 GT PUSH2 0xEEA JUMPI CALLDATASIZE SWAP2 ADD PUSH1 0x24 ADD GT PUSH2 0xEE6 JUMPI MLOAD PUSH4 0xA85BD01 PUSH1 0xE1 SHL DUP2 MSTORE PUSH1 0x20 SWAP1 RETURN JUMPDEST POP DUP1 REVERT JUMPDEST DUP4 DUP1 REVERT JUMPDEST POP SWAP2 SWAP1 CALLVALUE PUSH2 0xEE6 JUMPI DUP3 PUSH1 0x3 NOT CALLDATASIZE ADD SLT PUSH2 0xEE6 JUMPI PUSH2 0xF09 PUSH2 0xFFE JUMP JUMPDEST SWAP2 PUSH1 0x24 CALLDATALOAD PUSH2 0xF19 DUP5 EXTCODESIZE ISZERO ISZERO PUSH2 0x1121 JUMP JUMPDEST DUP5 MLOAD PUSH4 0x31A9108F PUSH1 0xE1 SHL DUP2 MSTORE DUP4 DUP2 ADD DUP3 SWAP1 MSTORE PUSH1 0x20 SWAP5 PUSH1 0x1 PUSH1 0x1 PUSH1 0xA0 SHL SUB SWAP1 DUP2 AND SWAP2 DUP7 DUP2 PUSH1 0x24 DUP2 DUP7 GAS STATICCALL SWAP1 DUP2 ISZERO PUSH2 0x2F0 JUMPI SWAP1 PUSH2 0xF5E SWAP3 SWAP2 DUP7 SWAP2 PUSH2 0xFE7 JUMPI POP AND ISZERO ISZERO PUSH2 0x1204 JUMP JUMPDEST DUP3 MSTORE DUP2 DUP5 MSTORE DUP5 DUP3 KECCAK256 SWAP1 DUP3 MSTORE DUP4 MSTORE DUP4 DUP2 KECCAK256 SWAP3 DUP4 SLOAD SWAP3 PUSH8 0xFFFFFFFFFFFFFFFF DUP5 GT PUSH2 0xFD4 JUMPI POP DUP5 MLOAD SWAP4 SWAP2 PUSH2 0xF96 PUSH1 0x5 DUP6 SWAP1 SHL DUP4 ADD DUP7 PUSH2 0x11C3 JUMP JUMPDEST DUP4 DUP6 MSTORE SWAP2 DUP3 MSTORE DUP1 DUP3 KECCAK256 DUP2 DUP6 ADD JUMPDEST DUP5 DUP5 LT PUSH2 0xFB7 JUMPI DUP7 MLOAD DUP1 PUSH2 0x9AE DUP9 DUP3 PUSH2 0x102F JUMP JUMPDEST PUSH1 0x6 DUP4 PUSH1 0x1 SWAP3 PUSH2 0xFC6 DUP6 PUSH2 0x12D3 JUMP JUMPDEST DUP2 MSTORE ADD SWAP3 ADD SWAP4 ADD SWAP3 SWAP1 PUSH2 0xFA3 JUMP JUMPDEST PUSH4 0x4E487B71 PUSH1 0xE0 SHL DUP4 MSTORE PUSH1 0x41 SWAP1 MSTORE PUSH1 0x24 DUP3 REVERT JUMPDEST PUSH2 0x3ED SWAP2 POP DUP9 RETURNDATASIZE DUP11 GT PUSH2 0x3F3 JUMPI PUSH2 0x3E5 DUP2 DUP4 PUSH2 0x11C3 JUMP JUMPDEST PUSH1 0x4 CALLDATALOAD SWAP1 PUSH1 0x1 PUSH1 0x1 PUSH1 0xA0 SHL SUB DUP3 AND DUP3 SUB PUSH2 0x1014 JUMPI JUMP JUMPDEST PUSH1 0x0 DUP1 REVERT JUMPDEST PUSH1 0x24 CALLDATALOAD SWAP1 PUSH1 0x1 PUSH1 0x1 PUSH1 0xA0 SHL SUB DUP3 AND DUP3 SUB PUSH2 0x1014 JUMPI JUMP JUMPDEST PUSH1 0x20 SWAP1 DUP2 PUSH1 0x40 DUP2 DUP4 ADD SWAP3 DUP3 DUP2 MSTORE DUP6 MLOAD DUP1 SWAP5 MSTORE ADD SWAP4 ADD SWAP2 PUSH1 0x0 JUMPDEST DUP3 DUP2 LT PUSH2 0x1056 JUMPI POP POP POP POP SWAP1 JUMP JUMPDEST SWAP1 SWAP2 SWAP3 SWAP4 DUP3 PUSH1 0xC0 DUP3 PUSH2 0x10A9 PUSH1 0x1 SWAP5 DUP10 MLOAD PUSH1 0xA0 SWAP1 DUP2 PUSH1 0x1 DUP1 DUP3 SHL SUB SWAP2 DUP3 DUP2 MLOAD AND DUP6 MSTORE PUSH1 0x20 DUP2 ADD MLOAD PUSH1 0x20 DUP7 ADD MSTORE DUP3 PUSH1 0x40 DUP3 ADD MLOAD AND PUSH1 0x40 DUP7 ADD MSTORE PUSH1 0x60 DUP2 ADD MLOAD PUSH1 0x60 DUP7 ADD MSTORE PUSH1 0x80 DUP2 ADD MLOAD PUSH1 0x80 DUP7 ADD MSTORE ADD MLOAD AND SWAP2 ADD MSTORE JUMP JUMPDEST ADD SWAP6 ADD SWAP4 SWAP3 SWAP2 ADD PUSH2 0x1048 JUMP JUMPDEST PUSH1 0x60 SWAP1 PUSH1 0x3 NOT ADD SLT PUSH2 0x1014 JUMPI PUSH1 0x4 CALLDATALOAD PUSH1 0x1 PUSH1 0x1 PUSH1 0xA0 SHL SUB DUP2 AND DUP2 SUB PUSH2 0x1014 JUMPI SWAP1 PUSH1 0x24 CALLDATALOAD SWAP1 PUSH1 0x44 CALLDATALOAD SWAP1 JUMP JUMPDEST PUSH1 0x4 CALLDATALOAD PUSH1 0x1 PUSH1 0x1 PUSH1 0xA0 SHL SUB DUP2 AND DUP2 SUB PUSH2 0x1014 JUMPI SWAP1 JUMP JUMPDEST PUSH1 0x44 CALLDATALOAD PUSH1 0x1 PUSH1 0x1 PUSH1 0xA0 SHL SUB DUP2 AND DUP2 SUB PUSH2 0x1014 JUMPI SWAP1 JUMP JUMPDEST PUSH1 0xA4 CALLDATALOAD PUSH1 0x1 PUSH1 0x1 PUSH1 0xA0 SHL SUB DUP2 AND DUP2 SUB PUSH2 0x1014 JUMPI SWAP1 JUMP JUMPDEST ISZERO PUSH2 0x1128 JUMPI JUMP JUMPDEST PUSH1 0x40 MLOAD PUSH3 0x461BCD PUSH1 0xE5 SHL DUP2 MSTORE PUSH1 0x20 PUSH1 0x4 DUP3 ADD MSTORE PUSH1 0x27 PUSH1 0x24 DUP3 ADD MSTORE PUSH32 0x496E76616C6964204E465420436F6C6C656374696F6E20636F6E747261637420 PUSH1 0x44 DUP3 ADD MSTORE PUSH7 0x61646472657373 PUSH1 0xC8 SHL PUSH1 0x64 DUP3 ADD MSTORE PUSH1 0x84 SWAP1 REVERT JUMPDEST PUSH8 0xFFFFFFFFFFFFFFFF DUP2 GT PUSH2 0x1191 JUMPI PUSH1 0x40 MSTORE JUMP JUMPDEST PUSH4 0x4E487B71 PUSH1 0xE0 SHL PUSH1 0x0 MSTORE PUSH1 0x41 PUSH1 0x4 MSTORE PUSH1 0x24 PUSH1 0x0 REVERT JUMPDEST PUSH1 0xC0 DUP2 ADD SWAP1 DUP2 LT PUSH8 0xFFFFFFFFFFFFFFFF DUP3 GT OR PUSH2 0x1191 JUMPI PUSH1 0x40 MSTORE JUMP JUMPDEST SWAP1 PUSH1 0x1F DUP1 NOT SWAP2 ADD AND DUP2 ADD SWAP1 DUP2 LT PUSH8 0xFFFFFFFFFFFFFFFF DUP3 GT OR PUSH2 0x1191 JUMPI PUSH1 0x40 MSTORE JUMP JUMPDEST SWAP1 DUP2 PUSH1 0x20 SWAP2 SUB SLT PUSH2 0x1014 JUMPI MLOAD PUSH1 0x1 PUSH1 0x1 PUSH1 0xA0 SHL SUB DUP2 AND DUP2 SUB PUSH2 0x1014 JUMPI SWAP1 JUMP JUMPDEST ISZERO PUSH2 0x120B JUMPI JUMP JUMPDEST PUSH1 0x40 MLOAD PUSH3 0x461BCD PUSH1 0xE5 SHL DUP2 MSTORE PUSH1 0x20 PUSH1 0x4 DUP3 ADD MSTORE PUSH1 0x14 PUSH1 0x24 DUP3 ADD MSTORE PUSH20 0x13919508125108191BD95CDB89DD08195E1A5CDD PUSH1 0x62 SHL PUSH1 0x44 DUP3 ADD MSTORE PUSH1 0x64 SWAP1 REVERT JUMPDEST SWAP1 DUP2 PUSH1 0x20 SWAP2 SUB SLT PUSH2 0x1014 JUMPI MLOAD DUP1 ISZERO ISZERO DUP2 SUB PUSH2 0x1014 JUMPI SWAP1 JUMP JUMPDEST DUP1 SLOAD DUP3 LT ISZERO PUSH2 0x127B JUMPI PUSH1 0x0 MSTORE PUSH1 0x6 PUSH1 0x20 PUSH1 0x0 KECCAK256 SWAP2 MUL ADD SWAP1 PUSH1 0x0 SWAP1 JUMP JUMPDEST PUSH4 0x4E487B71 PUSH1 0xE0 SHL PUSH1 0x0 MSTORE PUSH1 0x32 PUSH1 0x4 MSTORE PUSH1 0x24 PUSH1 0x0 REVERT JUMPDEST ISZERO PUSH2 0x1298 JUMPI JUMP JUMPDEST PUSH1 0x40 MLOAD PUSH3 0x461BCD PUSH1 0xE5 SHL DUP2 MSTORE PUSH1 0x20 PUSH1 0x4 DUP3 ADD MSTORE PUSH1 0x13 PUSH1 0x24 DUP3 ADD MSTORE PUSH19 0x189A5908125108191BD95CDB89C8195E1A5CDD PUSH1 0x6A SHL PUSH1 0x44 DUP3 ADD MSTORE PUSH1 0x64 SWAP1 REVERT JUMPDEST SWAP1 PUSH1 0x40 MLOAD PUSH2 0x12E0 DUP2 PUSH2 0x11A7 JUMP JUMPDEST DUP3 SLOAD PUSH1 0x1 PUSH1 0x1 PUSH1 0xA0 SHL SUB SWAP1 DUP2 AND DUP3 MSTORE PUSH1 0x1 DUP5 ADD SLOAD PUSH1 0x20 DUP4 ADD MSTORE PUSH1 0x2 DUP5 ADD SLOAD DUP2 AND PUSH1 0x40 DUP4 ADD MSTORE PUSH1 0x3 DUP5 ADD SLOAD PUSH1 0x60 DUP4 ADD MSTORE PUSH1 0x4 DUP5 ADD SLOAD PUSH1 0x80 DUP4 ADD MSTORE PUSH1 0x5 SWAP1 SWAP4 ADD SLOAD SWAP1 SWAP3 AND PUSH1 0xA0 DUP4 ADD MSTORE JUMP JUMPDEST ISZERO PUSH2 0x1330 JUMPI JUMP JUMPDEST PUSH1 0x40 MLOAD PUSH3 0x461BCD PUSH1 0xE5 SHL DUP2 MSTORE PUSH1 0x20 PUSH1 0x4 DUP3 ADD MSTORE PUSH1 0x22 PUSH1 0x24 DUP3 ADD MSTORE PUSH32 0x43616C6C6572206973206E6F7420746865206F776E6572206F6620746865204E PUSH1 0x44 DUP3 ADD MSTORE PUSH2 0x1195 PUSH1 0xF2 SHL PUSH1 0x64 DUP3 ADD MSTORE PUSH1 0x84 SWAP1 REVERT JUMPDEST PUSH1 0x40 MLOAD SWAP1 PUSH2 0x138D DUP3 PUSH2 0x11A7 JUMP JUMPDEST DUP2 PUSH1 0xA0 PUSH1 0x0 SWAP2 DUP3 DUP2 MSTORE DUP3 PUSH1 0x20 DUP3 ADD MSTORE DUP3 PUSH1 0x40 DUP3 ADD MSTORE DUP3 PUSH1 0x60 DUP3 ADD MSTORE DUP3 PUSH1 0x80 DUP3 ADD MSTORE ADD MSTORE JUMP JUMPDEST DUP1 MLOAD ISZERO PUSH2 0x127B JUMPI PUSH1 0x20 ADD SWAP1 JUMP INVALID LOG2 PUSH5 0x6970667358 0x22 SLT KECCAK256 ADDRESS ADDRESS PUSH3 0x1B7BA5 0xC 0xF6 DUP16 0xE7 DUP4 0xB2 0xCD STATICCALL 0xBE SLT 0xBC 0xAA SMOD PUSH10 0xB5417F5C6948044CA33C 0x24 PUSH4 0x64736F6C PUSH4 0x43000814 STOP CALLER "
        },
        "methodIdentifiers": {
          "acceptBid(address,uint256,uint256)": "e13a40f0",
          "activateBidding(address,uint256)": "2488bc2c",
          "cancelBid(address,uint256,uint256)": "3290463b",
          "createBid((address,uint256,address,uint256,uint256,address))": "a664c6f4",
          "deactivateBidding(address,uint256)": "4cfb8c76",
          "getAccountBids(address,address)": "a5982c2d",
          "getNFTActive(address,uint256)": "4be0e213",
          "getNFTBidInfo(address,uint256,uint256)": "dd3420e8",
          "getNFTBids(address,uint256)": "0f8a0180",
          "onERC721Received(address,address,uint256,bytes)": "150b7a02"
        }
      }
    }
  }
}